:020000040800F2
:10000000A849002029030008DF2300082520000854
:10001000DD23000883050008A93500080000000062
:10002000000000000000000000000000690200085D
:10003000DD05000800000000C5020008FD240008DE
:100040004303000843030008430300084303000878
:100050004303000843030008430300084303000868
:100060004303000843030008430300084303000858
:100070004303000843030008430300084303000848
:100080004303000843030008430300084303000838
:100090004303000843030008430300084303000828
:1000A00043030008CD25000843030008430300086C
:1000B000D9250008E525000843030008430300088C
:1000C00043030008430300084303000843030008F8
:1000D0004303000885350008913500089D35000868
:1000E00043030008430300084303000843030008D8
:1000F00043030008430300084303000843030008C8
:100100004303000843030008F125000843030008E7
:1001100011330008430300084303000843030008A9
:100120004303000843030008430300084303000897
:100130004303000843030008430300084303000887
:100140004303000843030008430300084303000877
:100150004303000843030008430300084303000867
:100160004303000843030008430300084303000857
:100170004303000843030008430300080000000095
:10018000430300084303000800F002F800F05CF8A5
:100190000AA090E8000C82448344AAF10107DA45E2
:1001A00001D100F051F8AFF2090EBAE80F0013F0D8
:1001B000010F18BFFB1A43F001031847844B0000DE
:1001C000A44B00000A444FF0000C10F8013B13F060
:1001D000070408BF10F8014B1D1108BF10F8015BA0
:1001E000641E05D010F8016B641E01F8016BF9D193
:1001F00013F0080F1EBF10F8014BAD1C0C1B09D1EA
:100200006D1E58BF01F801CBFAD505E014F8016B5B
:1002100001F8016B6D1EF9D59142D6D370470000ED
:100220000023002400250026103A28BF78C1FBD8FF
:10023000520728BF30C148BF0B6070471FB504F09C
:1002400029FD1FBD10B510BD00F061F91146FFF783
:10025000F5FF03F02BFA00F07FF903B4FFF7F2FF8C
:1002600003BC00F087F900002C4B19680868B0E85F
:10027000F04F80F30988BFF36F8F4FF0000080F3D9
:10028000118870470000000008480068006880F38B
:1002900008884FF0000080F3148862B661B6BFF39F
:1002A0004F8FBFF36F8F00DF00BF00BF08ED00E08E
:1002B000DFF80C00016841F470010160704700BF75
:1002C00088ED00E0EFF30980BFF36F8F134B1A68DE
:1002D0001EF0100F08BF20ED108A20E9F04F1060CB
:1002E00009B44FF0500080F31188BFF34F8FBFF374
:1002F0006F8F03F0E9FF4FF0000080F3118809BC15
:1003000019680868B0E8F04F1EF0100F08BFB0EC95
:10031000108A80F30988BFF36F8F7047D8000020E0
:10032000EFF30580704700000948804709480047FF
:10033000FEE7FEE7FEE7FEE7FEE7FEE7FEE7FEE795
:10034000FEE7FEE704480549054A064B70470000F2
:10035000BD25000889010008A8430020A849002005
:10036000A8450020A845002053EA020C00F069804F
:100370002DE9F04B4FF00006002B1FBFB3FA83F5B9
:1003800003FA05F424FA05F65E4012BF1643B2FAEA
:1003900082F502FA05F4C5F120051EBF22FA05FC1C
:1003A00044EA0C04203556EA044C4FEA144418BFC2
:1003B000641C4FF000084FF00009904271EB030CF1
:1003C00039D3002919BFB1FA81F701FA07F6B0FA5B
:1003D00080F700FA07F6C7F120071EBF20FA07FCD6
:1003E00046EA0C062037B6FBF4FCA7EB0507103FE6
:1003F00007F01F0BCBF120060CFA0BFB2CFA06F6CC
:1004000044BFB3460026202FA4BF5E464FF0000B2A
:100410005BEA060C08BF4FF0010B19EB0B09ABFBB5
:10042000027C48EB0608C01B06FB02CC0BFB03CC8E
:1004300071EB0C01C1E70B46024641464846BDE858
:10044000F08B13B54FF000004FF00001AFF30080C8
:10045000BDE81C40704710B5203AC0F00B80B1E8F1
:100460001850203AA0E81850B1E81850A0E81850E9
:10047000BFF4F5AF5FEA027C24BFB1E81850A0E8F2
:10048000185044BF18C918C0BDE810405FEA827C0C
:1004900024BF51F8043B40F8043B08BF7047D20723
:1004A00028BF31F8023B48BF11F8012B28BF20F8C4
:1004B000023B48BF00F8012B70474FF0000200B527
:1004C000134694469646203922BFA0E80C50A0E877
:1004D0000C50B1F12001BFF4F7AF090728BFA0E825
:1004E0000C5048BF0CC05DF804EB890028BF40F8F1
:1004F000042B08BF704748BF20F8022B11F0804F33
:1005000018BF00F8012B7047704770477047754659
:1005100000F02CF8AE4605006946534620F007006F
:10052000854618B020B5FFF70DFFBDE820404FF01D
:1005300000064FF000074FF000084FF0000B21F0CD
:100540000701AC46ACE8C009ACE8C009ACE8C0099A
:10055000ACE8C0098D46704710B50446AFF3008083
:100560002046BDE81040FFF778BE00000048704705
:100570004843002001491820ABBEFEE726000200D8
:100580007047FEE710B5104800212DED028BB0EE4C
:10059000408A0170C17081700121417001F044FDF9
:1005A0000A49086001F01CFF0949B0EE480A0860DA
:1005B000084803F0D5F9B0EE480ABDEC028B0648B6
:1005C000BDE8104003F0CCB97C01002058010020A8
:1005D0005C0100206400002084000020704772B697
:1005E000FEE72DE9F0410446876D00F057F9064615
:1005F00094F835000025022806D08020606584F834
:1006000034500120BDE8F0812068016821F0160116
:1006100001602068416921F080014161206C08B9C6
:10062000A06C20B12068016821F0080101602068F9
:10063000016821F0010101600CE000F02FF9801B3E
:10064000052807D920206065032084F8350084F848
:100650003450D7E720680068C007EED194F85C10EA
:100660003F208840B860012084F8350084F8345079
:100670000020C7E790F83510022903D0802141659A
:1006800001207047052180F835100068016821F0CD
:1006900001010160002070472DE9F84FDFF8BCA18F
:1006A0000022012503264FF00F090AF1040BAAF1DD
:1006B000040E00BF0B6805FA02F42340A34270D178
:1006C0000F7907F00307012F01D0022F16D1876899
:1006D0004FEA420806FA08FC27EA0C07D1F80CC0DA
:1006E0000CFA08FC4CEA070CC0F808C04768A7439E
:1006F0000C79C4F3001494403C4344600C79E44307
:10070000A4070AD0C4684FEA420C06FA0CF7BC43AF
:100710008F6807FA0CF72743C7600C7904F00304CD
:10072000022C12D1D40800EB840CDCF820405707CF
:10073000FF0E09FA07F824EA0804D1F8108008FA35
:1007400007F848EA0408CCF8208004684FEA420C15
:1007500006FA0CF7BC430F7907F0030707FA0CF70A
:10076000274307604C6814F4403F70D03C4C276826
:1007700047F480472760246822F0030704F480448C
:100780000094384C07EB040CDCF8084897074FEA54
:10079000177809FA08F7BC43334FB84202D1002753
:1007A00024E054E0314FB84201D101271EE0304F20
:1007B000B84201D1022719E02E4FB84201D10327D8
:1007C00014E02D4FB84201D104270FE02B4FB8425F
:1007D00001D105270AE02A4FB84201D1062705E0DA
:1007E000284FB84201D1072700E0082707FA08F789
:1007F0002743CCF80878DAF800405746D1F804C00F
:100800009C435FEACC2C00D51C433C60DBF80040E5
:100810005F46D1F804C09C435FEA8C2C00D51C4392
:100820003C60DEF800407746D1F804C09C435FEAA4
:100830008C3C00D51C433C60084F083F3C68D1F815
:1008400004C09C435FEACC3C00D51C433C60521C76
:10085000102AFFF42FAFBDE8F88F0000083C0140DC
:1008600044380240003001400000024000040240D1
:1008700000080240000C0240001002400014024038
:1008800000180240001C02400069084000D001200E
:1008900070470AB1816170470904FBE7014880682D
:1008A00070470000C80000200248816802781144A7
:1008B00081607047C80000200B4810B5016841F402
:1008C00000710160016841F480610160016841F4D8
:1008D00080710160032000F099F80F2000F006F805
:1008E00000F04AF8002010BD003C024030B505463B
:1008F0001C4887B00024016841F0010101600068D4
:1009000006A900F00100009001A800F02BF900F00A
:1009100059F915494000B0FBF1F11548134A491E39
:10092000026040F2E732C0E90324C0E901148461A7
:1009300000F088FB040012D10D4800F0CFFB04004A
:100940000DD1192000F034F8102D07D200222946CD
:10095000192000F03BF80748056000E0012407B0CB
:10096000204630BD4438024040420F0000000140A4
:1009700010060020CC0000200C4882B0016841F431
:1009800080410160006800F4804000900748001F2B
:10099000016841F0805101600068002200F0805041
:1009A00000900F21901E02B000F010B844380240B1
:1009B000002809DB00F01F0201219140400980005E
:1009C00000F1E020C0F8001170470000F0B40E4BB9
:1009D0001B680C46C3F30223C3F10705042D00D99D
:1009E0000425191D072901D2002300E0DB1E012682
:1009F00006FA05F1491E214099409E40761E164098
:100A00003143F0BC02F0D1BD0CED00E0064900F02E
:100A1000070208684FF6FF03184040EA0220034A25
:100A200010430860704700000CED00E00000FA057C
:100A30002DE9F0470E46050065D0DFF81481D8F89F
:100A40000000F7B200F00700B04207D288F800704B
:100A5000D8F8000000F00700B04254D128683D4C9F
:100A6000810712D5400703D5206840F4E05020608C
:100A70002878000703D5206840F460402060206893
:100A8000A96820F0F000084320602878C0072DD026
:100A9000304968680839012812D0022813D0032889
:100AA00011D00968890700292DDA216821F0030196
:100AB00001432160FFF7F2FE814641F2883A0EE0E1
:100AC00009688903EFE709688901ECE7FFF7E6FEAB
:100AD000A0EB0901514502D90320BDE8F087206849
:100AE000696800F00C00B0EB810FEFD1D8F800106E
:100AF000404601F00701B14207D90770006800F0D5
:100B00000700B04201D00120E7E72878400705D56B
:100B10002068E96820F4E050084320602878000746
:100B200006D52068296920F4604040EAC1002060B1
:100B300000F058F82168084AC1F30311515CC8401D
:100B40000649086006480068FFF7D0FE0020C4E7A9
:100B5000003C024008380240FC4C0008D400002051
:100B6000CC0000200F2202600C4A136803F003033C
:100B70004360136803F0F0038360136803F4E053E9
:100B8000C36012684FF4E05303EAD20202610448E2
:100B9000006800F007000860704700000838024055
:100BA000003C02400448054900680968044AC1F352
:100BB0008221515CC8407047D400002008380240B0
:100BC0000C4D00080448054900680968044AC1F34F
:100BD0004231515CC8407047D400002008380240C0
:100BE0000C4D0008154810B5006810F00C021448B0
:100BF00013D04110042A0FD0082A0ED10F4C241F05
:100C00002268236802F03F025B0207D52068C0F328
:100C10008810A0FB010106E0084610BD2168C1F361
:100C20008811A1FB00010023FFF79EFB2168C1F39F
:100C30000141491C4900B0FBF1F010BD08380240E9
:100C40000024F4002DE9F84F04006ED02078DFF87E
:100C50004C93C007A9F104054AD009F104000168CA
:100C6000C1F38101012908D00068C0F38100022886
:100C70000AD1D9F80000400206D52868800337D58C
:100C800060680028E1D033E06068B0F5803F10D0A4
:100C9000B0F5A02F286810D020F480302860286894
:100CA00020F4802028606068A8B1FFF7F7FD0646B1
:100CB0000DE0286840F48030F4E740F4802028609C
:100CC000F7E700BFFFF7EAFD801B642873D82868A8
:100CD0008003F7D50CE0FFF7E1FD064605E000BF15
:100CE000FFF7DCFD801B6428F0D828688003F7D468
:100CF0002078DFF8AC8280074FF0000A3ED5A74885
:100D0000001D016811F00C0F08D00068C0F38100CD
:100D100002280BD1D9F80000400207D428688007C8
:100D200016D5E068012800D112E033E1E068B8B1DF
:100D30000120C8F80000FFF7B1FD064605E000BF3E
:100D4000FFF7ACFD801B0228C0D828688007F7D5C4
:100D50002868216920F0F80040EAC10028600DE011
:100D6000C8F800A0FFF79AFD064604E0FFF796FDDD
:100D7000801B02281FD828688007F7D42078000736
:100D800022D5864F87486169703771B101210160B2
:100D9000FFF784FD064604E0FFF780FD801B022874
:100DA00009D838688007F7D50EE0C0F800A0FFF733
:100DB00075FD064605E082E0FFF770FD801B022806
:100DC0007DD838688007F7D42078400768D5DFF8E9
:100DD000CCB100270BF13C0BDBF80000C0000BD4BA
:100DE000DBF8001041F08051CBF80010DBF8000078
:100DF000012700F0805000906B4E3068C00510D481
:100E0000306840F480703060FFF748FD009005E0E6
:100E1000FFF744FD0099401A022850D83068C005F9
:100E2000F6D55E4EA0686C3601280FD005283068D4
:100E300010D020F001003060306820F004003060F5
:100E4000A068B8B1FFF72AFD00900FE0306840F0CD
:100E50000100F4E740F004003060F7E7FFF71EFD03
:100E60000099411A41F28830814266D83068800783
:100E7000F4D50EE0FFF712FD009007E0FFF70EFD3E
:100E80000099411A41F28830814256D83068800773
:100E9000F4D42FB1DBF8001021F08051CBF8001012
:100EA000A069C8B33D49091D0968C1F38101022940
:100EB0004AD00228504607D0C8F8600000E03CE065
:100EC000FFF7ECFC04463BE04746C8F86000FFF73C
:100ED000E5FC064605E000BFFFF7E0FC801B0228AA
:100EE0002BD828688001F7D4D4E907010843A16A08
:100EF0002E4A490802EB0141626A41EA8211084325
:100F000094F82C1040EA0161C9F8001001203866FD
:100F1000FFF7C4FC044606E03EE000BFFFF7BEFC5E
:100F2000001B022809D828688001F7D534E000BFEB
:100F3000FFF7B4FC001B022802D90320BDE8F88F9C
:100F400028688001F4D427E00128F7D0D9F8000000
:100F5000E26900F4800191421CD1226A00F03F0155
:100F6000914217D147F6C071626A0140B1EB821F0E
:100F700010D1A26A4FF0FF3300F4403103EB52026C
:100F8000B1EB024F06D194F82C1000F07060B0EB7A
:100F9000016F01D00120D1E70020CFE704380240E3
:100FA00000004742800E4742007000400000FFFFF3
:100FB0007047704770B590F83C20012A32D0012468
:100FC00080F83C40022280F83D2003685A689D6802
:100FD00022F070060A6832435A60134B02689A4244
:100FE00014D0B2F1804F11D0104B9A420ED0104B5A
:100FF0009A420BD00F4B9A4208D00F4B9A4205D021
:101000000E4B9A4202D00E4B9A4204D1496825F009
:1010100080031943916080F83D40002180F83C1026
:10102000084670BD022070BD000001400004004071
:1010300000080040000C0040000401400040014056
:101040000018004010B5040003D094F83D0010B122
:1010500007E0012010BD002084F83C00204600F08D
:101060001FF8022084F83D00211D206801F0C6FA17
:10107000012084F8460084F83E0084F83F0084F89C
:10108000400084F8410084F8420084F8430084F86A
:10109000440084F8450084F83D00002010BD0000A5
:1010A00008B500680B49884212D10B48016841F02D
:1010B000020101600068002200F00200009005219A
:1010C0001D20FFF783FCBDE808401D20FFF770BC22
:1010D00008BD0000000400404038024090F83D1078
:1010E000012901D001207047022180F83D100168DC
:1010F000CA6842F00102CA6000681149884214D0EF
:10110000B0F1804F11D00F4988420ED00E4988426D
:101110000BD00E49884208D00D49884205D00D49B0
:10112000884202D00C49884204D1816801F007014D
:10113000062903D0016841F00101016000207047D9
:10114000000001400004004000080040000C004086
:1011500000040140004001400018004070B5044602
:1011600090F83C000025012817D0012684F83C6047
:10117000022084F83D002068826822F0770222F481
:101180007F4282600868502838D00DDC20284FD07C
:1011900005DC90B3102811D14AE0022070BD302840
:1011A00046D040280AD13BE060282FD070280DD0CF
:1011B000B0F5805F03D0B0F5005F12D0012584F850
:1011C0003D60002084F83C00284670BDCB68D1E922
:1011D0000121206801F083FA2068816841F07701DD
:1011E00009E0CB68D1E90121206801F078FA206894
:1011F000816841F480418160E1E719E0CA6849688B
:10120000206801F041FB5021206806E0CA68496867
:10121000206801F04AFB6021206801F06AFACEE7FD
:10122000CA684968206801F02FFB40212068F4E774
:10123000226801461046F0E72DE9F0410D46040012
:1012400003D094F83D0018B108E00120BDE8F0811A
:10125000002084F83C00204600F040F8022084F88A
:101260003D002068816844F2070291438160211D9E
:10127000206801F0C3F9226890689169166A2B68AA
:10128000AF69034340F20330814341EA0721A86874
:10129000EF6908434FF6FC418843E96840EA0720BC
:1012A000014328692F6A000140EA07300843696852
:1012B0006D6926F0AA0646EA05152943936022685F
:1012C000906154F8460B0162012004F81F09E07593
:1012D0002076E0762077A0750020B7E770B586B05D
:1012E000044614216846FFF7E8F8324923680024D1
:1012F000304A103902253048B3F1804F26D02F4EA6
:10130000B34221D1136843F008031360126802F05E
:10131000080205920A6842F001020A60096801F0B9
:101320000101059103210091CDE901546946CDE900
:101330000345FFF7B1F9002205213220FFF746FBF4
:101340005FF03200FFF734FB06B070BD136843F066
:1013500001031360126802F0010205920A6842F06C
:1013600001020A600A6802F0010205920A6842F06E
:1013700002020A600968012601F00201059120219C
:101380000091CDE90154CDE903466946FFF784F9A0
:1013900008200090CDE90154CDE90346694608488C
:1013A000FFF77AF9002205211C20FFF70FFB1C2014
:1013B000C8E700004038024000000240000C004036
:1013C0000004024070B590F83E60044690F83F502B
:1013D00090F8423090F84320022021B104290ED029
:1013E000012E1BD114E0012E18D1012B16D184F847
:1013F0003E0084F8420001220021206820E0012DF7
:101400000CD1012A0AD184F83F0084F8430014E08B
:10141000012D03D1012B01D1012A01D0012070BD82
:1014200084F83E0084F83F0084F8420084F84300CA
:1014300001220021206801F045F9012204212068E1
:1014400001F040F92068016841F0010101600020CD
:1014500070BD704770B50446006801694FF0000523
:10146000C943890715D4C168C943890711D4E91E46
:10147000016101202077206880698007204602D022
:10148000FFF7E7FF04E000F0D5F8204600F067F929
:10149000257720680169C943490717D4C168C94342
:1014A000490713D46FF004010161022020772068FE
:1014B000806910F4407F204602D0FFF7CAFF04E0A5
:1014C00000F0B8F8204600F04AF925772068016955
:1014D000C943090716D4C168C943090712D46FF07C
:1014E00008010161042020772068C0698007204638
:1014F00002D0FFF7AEFF04E000F09CF8204600F0B9
:101500002EF9257720680169C943C90617D4C16837
:10151000C943C90613D46FF0100101610820207778
:101520002068C06910F4407F204602D0FFF791FF89
:1015300004E000F07FF8204600F011F925772068DC
:101540000169C943C90708D1C168C943C90704D1A2
:10155000891E0161204600F067F920680169C943CE
:10156000090609D4C168C943090605D46FF0800192
:1015700001612046FFF71CFD20680169C943490647
:1015800009D4C168C943490605D46FF0400101611F
:10159000204600F077F920680169C94389060BD419
:1015A000C168C943890607D46FF020010161204654
:1015B000BDE87040FFF7FDBC70BD000030B587B0DE
:1015C000044614216846FEF778FF164920688842D1
:1015D00026D115480024016841F00101016001682D
:1015E00001F001010591016841F00201016000680C
:1015F000022500F002000590C0200090CDE90154C2
:1016000069460A48CDE90345FFF746F803200090F4
:10161000CDE9015469460648CDE90345FFF73CF89A
:1016200007B030BD000400403038024000000240E6
:1016300000040240704770B5044690F83C00002654
:101640000D4601280FD0012084F83C006AB1042A1D
:101650001DD0082A2FD00C2A3FD00126002084F864
:101660003C00304670BD022070BD206801F04AF891
:101670002068816941F0080181612068816921F059
:1016800004018161206881692A69114311E02068A1
:1016900001F068F82068816941F400618161206887
:1016A000816921F480618161206881692A6941EA48
:1016B00002218161D2E7206801F08AF82068C169BF
:1016C00041F00801C1612068C16921F00401C161D4
:1016D0002068C1692A69114311E0206801F0ACF863
:1016E0002068C16941F40061C1612068C16921F4C9
:1016F0008061C1612068C1692A6941EA0221C16132
:10170000ACE710B5040003D094F83D0010B107E039
:10171000012010BD002084F83C00204600F01EF897
:10172000022084F83D00211D206800F067FF0120A1
:1017300084F8460084F83E0084F83F0084F84000B6
:1017400084F8410084F8420084F8430084F844009F
:1017500084F8450084F83D00002010BD70477047B4
:1017600010B50446022249B104290ED0082913D02D
:1017700094F84100012816D0012010BD94F83E00D5
:101780000128F9D184F83E200FE094F83F000128A9
:10179000F2D184F83F2008E094F840000128EBD112
:1017A00084F8402001E084F841200122206800F004
:1017B00089FF16492068164A884201D0904203D119
:1017C000436C43F4004343642068884213D0B0F173
:1017D000804F10D00F4988420DD00F4988420AD05F
:1017E0000E49884207D0904205D00D49884202D068
:1017F0000C49884204D1816801F00701062903D011
:10180000016841F001010160002010BD00000140AD
:10181000000401400004004000080040000C0040AB
:10182000004001400018004010B50446006810490F
:10183000884201D1FFF738F80E48844209D1006888
:101840000068C1060C48016801D5491E00E0491C2A
:1018500001600A48844209D100680068C10608484E
:10186000016801D5491E00E0491C016010BD00005F
:1018700000000140000400204C01002090040020E2
:10188000540100207047704770470000F8B50168A8
:1018900004460868CA684B6910F00F0F4FF0000546
:1018A00059D003F0010602F49077374365D0C107A1
:1018B00005D0D10503D5216C41F001012164410718
:1018C00005D5D90703D0216C41F0020121648107BD
:1018D00005D5D90703D0216C41F00401216401072B
:1018E00007D502F02001314303D0216C41F00801FB
:1018F0002164216C00293AD0800604D5900602D5D7
:10190000204601F03AFD20684069216CC0F3801048
:10191000090700D460B3204601F008FD2068406943
:10192000400621D52068143050E8001F21F0400106
:1019300040E80012002AF5D1A06BA8B16C490165FE
:10194000A06BFEF797FE002811D0A06B016D01B0CF
:10195000BDE8F040084783060FD593060DD5204615
:10196000BDE8F84001F009BD2046FFF78DFFF8BD46
:101970002046FFF789FF2564F8BD266B2023012E42
:1019800079D1C60677D5D60675D50868486800901F
:101990004869400640D5A16B086840680004000C07
:1019A000EAD0A28D8242E7D9E085C869B0F5807F90
:1019B0002DD020680C3050E8001F21F4807140E8E1
:1019C0000012002AF5D12068143050E8001F21F0E1
:1019D000010140E80012002AF5D12068143050E8D7
:1019E000001F21F0400140E80012002AF5D184F8E0
:1019F0003E30256320680C3050E8001F21F01001B4
:101A000040E80012002AF5D1A06BFEF7EAFDA08D98
:101A1000E18D401A81B229E0A08DE18D401A81B29A
:101A2000E08D0028A8D00029A6D020680C3050E80E
:101A3000002F22F4907240E80026002EF5D1206895
:101A4000143050E8002F22F0010240E80026002E5A
:101A5000F5D184F83E30256320680C3050E8002F23
:101A600022F0100240E80023002BF5D12046FFF7BA
:101A70000AFFF8BDFFE705062BD5150629D594F812
:101A80003D002128F5D1A068B0F5805F01D1206923
:101A9000B0B1206A411C2162216800784860E08C66
:101AA000401E0004000CE084E3D12068C16821F0EE
:101AB0008001C1602068C16841F04001C160D8E781
:101AC000206A0088C0F308004860206A801C2062F9
:101AD000E5E74006CDD55006CBD5CA68204622F0B2
:101AE0004002CA6084F83D3000F09BFAC1E7000074
:101AF0001D33000870B5040004D094F83D000025A3
:101B000010B106E0012070BD84F83C50204600F082
:101B100023F8242084F83D002068C16821F4005196
:101B2000C160204601F08AFC2068016921F49041DF
:101B300001612068416921F02A0141612068C16882
:101B400041F40051C1602564202084F83D0084F8F0
:101B50003E00002070BD0000F0B587B0044614219F
:101B60006846FEF7AAFC5249504826680023504AAE
:101B70001039022403254FF4406C864221D11068AD
:101B800040F400201060106800F400200590086800
:101B900040F0040008600868CDF800C000F00400C0
:101BA00005900820CDE90350CDE90143694641483D
:101BB000FEF772FD002205213420FEF707FF3420D6
:101BC00027E0DFF8F4E007273C48764525D1384A7E
:101BD000121D166846F010061660126802F0100218
:101BE00005920A6842F001020A60096802AA01F03F
:101BF000010105914FF4C061CDE9001482E8A8000D
:101C00006946FEF749FD002205212520FEF7DEFE8C
:101C10002520FEF7CDFE07B0F0BDDFF8A4E0764545
:101C20001FD1166846F400361660126802F40032BE
:101C300005920A6842F001020A60096802AE01F0EA
:101C4000010105910C21CDE9001486E8A800694640
:101C5000FEF722FD002205212620FEF7B7FE2620F2
:101C6000D7E718488642D6D1106840F4802010602B
:101C7000106800F480200590086840F002000860B9
:101C80000868CDF800C000F00200CDE904700395AB
:101C9000CDE9014369460C48FEF7FEFC0022052110
:101CA0002720FEF793FE2720B3E70000004C0040FA
:101CB000403802400008024000100140000002408D
:101CC00000440040004800400004024090F83E30CC
:101CD000202B0ED159B152B190F83C30012B08D0D5
:101CE000012380F83C300023036301F02DBC012068
:101CF00070470220704700002DE9F0470746006852
:101D0000AA4901260025AA4C4FF0D1084FF002093C
:101D1000884272D12046217A027890F801C0531C83
:101D2000A448DBB2D12902D1BCF1000F03D0BCF131
:101D3000010F05D00CE000F802802370667055E0BA
:101D400081542370D22901D00A2B01D384F8019049
:101D5000A12901D162783AB16278032A0CD0022A13
:101D600015D0042A13D041E02178A1224254491C05
:101D700021700320607039E022788154521CD2B265
:101D80002270A22901D00A2A30D30421617001787F
:101D9000D12902D0A1291DD022E02178014411F8D7
:101DA000011CD2291CD184490A7802B90E704178ED
:101DB000824A5A39118082788149FF2A06D00D70F3
:101DC000C1788048FF2903D0057032E00E70F7E734
:101DD00006702EE02178014411F8011CA22918D0C8
:101DE000657025700A217348FEF767FB70497148DA
:101DF000012208316C30FFF769FF73483968DFF85A
:101E0000B4A1814249D1617A0AF10A00D12913D0E3
:101E100014E042786D4912B1012A05D009E08278B8
:101E20000A70C0786A4903E082780A70C07869490C
:101E3000087065702570D9E7E2782AB1E278012A46
:101E400009D0022A12D021E0A17800F80180491CB3
:101E5000A170E6701AE0A2788154521CD2B2A2702E
:101E6000D22901D00A2A11D384F803900178D1290C
:101E700005D1A178084410F8010CD22817D0E570DC
:101E80005046A57040F80A5F4560058148494948B9
:101E900001220931F430FFF719FF4F4938688842B1
:101EA00039D14448A17A1430D12903D004E0E57037
:101EB000A570EBE762792AB16279012A09D0022A7A
:101EC00012D021E0217900F80180491C217166714E
:101ED0001AE022798154521CD2B22271D22901D047
:101EE0000A2A11D384F805900178D12905D12179E6
:101EF000084410F8010CD22817D02E4865712571BE
:101F00000A211430FEF7D9FA29492A4801220A3158
:101F1000B030FFF7DBFE31493868884244D12548AC
:101F2000E17A1E30D12903D004E065712571EBE719
:101F3000E2792AB1E279012A09D0022A12D021E0FD
:101F4000A17900F80180491CA171E6711AE0A2791B
:101F50008154521CD2B2A271D22901D00A2A11D3C3
:101F600084F807900178D12905D1A179084410F8A7
:101F7000010CD2280FD0E5715046A57140F81E5FC4
:101F800045600581BDE8F04709490A4801220B3147
:101F90002830FFF79BBE074804221149283000F083
:101FA00021F8E571A571EDE7BDE8F087001001406B
:101FB000BC000020D804002078010020A8000020E8
:101FC0009501002094010020004800409601002067
:101FD000A5010020A601002000440040004C004064
:101FE0007001002090F83D30202B18D1A9B1A2B18A
:101FF00090F83C30012B12D001628284C28400210F
:102000000164212280F83D2080F83C100068C168FE
:1020100041F08001C160002070470120704702201C
:1020200070477047FEE7000003480068416A034AB2
:102030001160406A70470000000400204001002049
:1020400010B596B01C2211496846FEF704FA00212B
:10205000684601F021FC0E4C0C491C2260601C31CA
:1020600007A8FEF7F8F9002107A801F015FC0749B9
:10207000A0601C2238310EA8FEF7EDF900210EA851
:1020800001F00AFCE06016B010BD0000A84C00088A
:10209000AC0000202DE9F04186B014216846FEF71F
:1020A0000CFA2A480024016841F01001016001681F
:1020B00001F010010591016841F00401016001681F
:1020C00001F004010591016841F08001016001689F
:1020D00001F080010591016841F001010160016892
:1020E00001F001010591016841F002010160006801
:1020F000174F00F002000590002220213846FEF71D
:10210000C8FBDFF8508042F202060022314640460A
:10211000FEF7BFFB082001258DE8310069463846EF
:10212000FEF7BAFA20200090CDE9015469463846FE
:102130000394FEF7B1FA0096CDE901546946404692
:102140000394FEF7A9FA06B0BDE8F08130380240EA
:10215000001002400008024010B58CB024216846EF
:10216000FEF7ABF90024154809944FF080410A941A
:10217000C0E90014611EC0E90241046184610320CA
:10218000CDE900040120CDE902040494CDE9054025
:102190000794694609480894FFF74EF808B1FEF71E
:1021A0001EFA099409A905480A94FEF703FF0028BE
:1021B00001D0FEF714FA0CB010BD0000000400209E
:1021C00030B58DB000240794089409940A940B94B8
:1021D0001C2168460C94FEF770F92D482B490160CC
:1021E000A721C0E9011440F2E731C0E903148021BE
:1021F0008161FEF727FF08B1FEF7F1F94FF4805037
:10220000079007A92248FEF7A9FF08B1FEF7E7F9F2
:102210001F48FFF776FA08B1FEF7E1F90B940BA916
:102220001B480C94FEF7C6FE08B1FEF7D8F96020F3
:1022300000904FF4FA75CDE9015400226946144824
:102240000494FFF7F8F908B1FEF7C9F904226946CA
:102250000F480194FFF7EFF908B1FEF7C0F9082223
:1022600069460B480195FFF7E6F908B1FEF7B7F9A3
:102270000C22694606480194FFF7DDF908B1FEF724
:10228000AEF90348FFF79AF90DB030BD00040040E5
:102290004804002010B58CB024216846FEF70DF9E3
:1022A00000241548099413490A94C0E90014611EDA
:1022B000C0E90241046184610320CDE900040120EA
:1022C000CDE902040494CDE90540079469460A4823
:1022D0000894FEF7B1FF08B1FEF781F9099409A946
:1022E00005480A94FEF766FE002801D0FEF777F94C
:1022F0000CB010BD000C0040900400200C4810B53C
:102300000A4901604FF4E1314160002181600C22F3
:10231000C160C0E904128161C161FFF7EBFB0028D5
:1023200003D0BDE81040FEF75AB910BD004C004084
:10233000000500200C4810B50A4901604FF4E13156
:102340004160002181600C22C160C0E904128161FA
:10235000C161FFF7CFFB002803D0BDE81040FEF7B6
:102360003EB910BD00100140440500200C4810B5D6
:102370000A4901604FF4E1314160002181600C2283
:10238000C160C0E904128161C161FFF7B3FB00289D
:1023900003D0BDE81040FEF722B910BD0044004054
:1023A000880500200C4810B50A4901604FF4E1315E
:1023B0004160002181600C22C160C0E9041281618A
:1023C000C161FFF797FB002803D0BDE81040FEF77E
:1023D00006B910BD00480040CC050020FEE7FEE72E
:1023E00003480068416A034A5160406A7047000030
:1023F000900400204001002070B5314900222DEDED
:10240000028B0A704A700A7101222E4C2E4D9FEDEC
:102410002F8ADFED2F8A012821D004282ED005280D
:102420003BD09FED2C8ADFED2C8AC0B1022825D04D
:10243000032841D1CA70FFF7F7FD2060FFF7D0FFF6
:1024400028609FED260A264801F08AFA9FED250AAA
:102450002548BDEC028BBDE8704001F081BACA701E
:10246000FFF7E2FD2060FFF7BBFF2860B0EE480AEF
:102470001B4801F075FAB0EE680AE9E7CA70FFF789
:10248000D3FD2060FFF7ACFF2860B0EE680A144867
:1024900001F066FAB0EE480ADAE7CA70FFF7C4FD49
:1024A0002060FFF79DFF28609FED100A0C4801F0A7
:1024B00057FA9FED0F0ACBE7BDEC028B70BD000011
:1024C0007C010020580100205C0100204C9701C3D2
:1024D0004C970143FA7EBCC1FA7EBC41FA7E3C4275
:1024E00064000020FA7E3CC2840000204C978143A7
:1024F0004C9781C3012001F0C3F9FBE710B55020D0
:1025000080F31188BFF34F8FBFF36F8F01F0DCFFB3
:1025100018B104494FF080500860002080F3118802
:1025200010BD000004ED00E030B593B030216846E6
:10253000FDF7C3FF14210CA8FDF7BFFF1D480025C0
:10254000016841F080510160006800F080501190F6
:102550001948016841F4804101600068022400F4D8
:102560008040119001200090000401908001CDE98D
:10257000064008AA0420A82182E813000B906846B0
:10258000FEF760FB08B172B6FEE70CA90F2081E8E8
:1025900031004FF4A0500F904FF48050109005215F
:1025A0000CA8FEF745FA002801D072B6FEE713B07A
:1025B00030BD000040380240007000400248016811
:1025C00041F470010160704788ED00E00148FEF7BA
:1025D00041BF0000100600200148FEF73BBF00008D
:1025E000000400200148FEF735BF00004804002029
:1025F0000148FEF72FBF000090040020F0B50268EC
:10260000254C264D264E274F274B4FF0804CA0429D
:1026100009D0604507D0A84205D0B04203D0B842E7
:1026200001D0984204D122F0700E4A6842EA0E02AC
:10263000A0421BD0604519D0A84217D0B04215D097
:10264000B84213D0984211D0184DA8420ED0184D60
:10265000A8420BD0174DA84208D0174DA84205D06C
:10266000164DA84202D0164DA84203D122F440755F
:10267000CA682A434D6922F080022A4302608A68B0
:10268000C2620A688262A04201D0984201D10969FF
:10269000016301214161F0BD0000014000040040E0
:1026A00000080040000C00400004014000400140D0
:1026B000004401400048014000180040001C004058
:1026C0000020004010B501F01F030121046A994069
:1026D0008C430462016A9A401143016210BD10B537
:1026E000846842EA032224F47F440A43224382603E
:1026F00010BD826822F070020A4342F00701816037
:1027000070470000F0B5026A22F001020262036A1B
:1027100042688469124E24F073050C682C4323F040
:1027200002058B682B430D4DA84201D0B04205D164
:1027300023F00807CB683B4323F00403A84201D0F1
:10274000B04205D14D6922F4407215438A692A438B
:1027500042608461496841630362F0BD000001404A
:1027600000040140F0B5026A22F010020262026A1F
:10277000436884690D6824F4E64444EA05248D68BE
:1027800022F0200242EA05120F4D104EA84201D05D
:10279000B04206D1CF6822F0800242EA071222F04E
:1027A0004002A84201D0B04207D14D6923F44063F2
:1027B00043EA85038D6943EA850343608461496880
:1027C00081630262F0BD000000000140000401408E
:1027D000F0B5026A22F480720262026A4368C46938
:1027E00022F4007224F073050C68124E2C438D689D
:1027F00042EA05220E4DA84201D0B04206D1CF6870
:1028000022F4006242EA072222F48062A84201D048
:10281000B04207D14D6923F4405343EA05138D6953
:1028200043EA05134360C4614968C1630262F0BDB5
:10283000000001400004014030B5026A22F48052D9
:102840000262046A4268C3690D6823F4E64343EAFE
:1028500005238D6824F4005444EA0534084DA84249
:1028600002D0084DA84204D14D6922F4804242EAC8
:1028700085124260C36149680164046230BD000092
:10288000000001400004014010B5036A046A24F00E
:1028900001040462846924F0F00444EA021423F081
:1028A0000A020A438461026210BD10B5036A23F074
:1028B000100303628369046A23F4704343EA02321B
:1028C00024F0A00343EA01118261016210BD0000FF
:1028D0002DED048BDFF8E4839FEDF99BFA4DDFF8D3
:1028E000ECB3DFEDFB8AFB4CDFF8ECA34FF0000903
:1028F0009FEDFA8AFA4E307810B101287ED088E236
:10290000F84F387820B1012879D0022878D0FCE33C
:10291000207830B101280BD002281CD0032831D0F8
:1029200082E0F14800780128E9D10422EF494CE225
:1029300098F8000046460128E1D10821EC48FDF74F
:10294000A3FF0028DBD186F800909FEDEA0AEA4851
:1029500080ED000A21E328780128D0D1E7480078EB
:1029600003280AD3FFF760FBE549086085F800906B
:1029700039784846491C3970AAE285F800908BF8EE
:1029800000905FE19AF800000128B8D1DD49DB48EA
:102990008AF8009081F800900078012805D0042082
:1029A000FFF72AFD4221D84862E10120FFF724FD0C
:1029B0004121F8E781F80090D44981F80090E1E2E4
:1029C00005287CD006287BD09FE300BF81F80090CB
:1029D0008BF800908CE22078401C79E2C9498AF893
:1029E0000090012281F800900221C948FDF751FFB3
:1029F000B0EE480AC74800F0B3FF02E083E20BE004
:102A00008EE0B0EE480AC44800F0AAFF0120307002
:102A100087F8009048465BE2207840B101282ED02C
:102A2000022836D003285CD0042872D0C8E7287862
:102A30000128C9D1FFF7F8FAB1490968401A01F035
:102A4000A1FF9FEDB61B53EC112B01F0EFFF9FEDA3
:102A5000B51B53EC112B01F0E9FF53EC192B01F0DE
:102A600039FE9FEDB21B53EC112B02F0DDF8ABD217
:102A700085F800908BF800909FEDAE0A3AE29AF844
:102A800000100129A0D19F488AF8009080F800909A
:102A90008FE198F80010012996D1A74888F8009096
:102AA0004E460078D0B9FFF7BFFA954908609248C2
:102AB00090ED000A974800F053FF8F4801E029E0AD
:102AC000B6E090ED000A944800F04AFF01218BF82F
:102AD00000103878401C3870267016E39FED970A76
:102AE00008E29AF800000128F7D1864992488AF84E
:102AF000009081F8009090F90000401C04D0042060
:102B0000FFF77AFC44214EE70120FFF775FC4321D3
:102B100049E78BE08A49087801283FF457AFF4E28F
:102B20002078F0B1012849D0022852D003286CD077
:102B300004287ED0052871D0062870D007286FD0D1
:102B400008286ED009286DD00A286CD0C8286BD010
:102B5000C9286AD00B2869D00C2868D00D2867D006
:102B6000D3E228780128B8D1FFF75EFA64490968F2
:102B7000401A01F007FF9FED691B53EC112B01F088
:102B800055FF9FED681B53EC112B01F04FFF53ECE9
:102B9000192B01F09FFD9FED651B53EC112B02F0EB
:102BA00043F89AD285F800908BF800909FED650A63
:102BB000FDF7E8FC05202070012124E09AF80000D0
:102BC00001288AD14F498AF80090002081F80090AE
:102BD00001E25D4908780128A1D181F800904B49B4
:102BE000B0EE480A4B4881F8009000F0B9FEB0EE14
:102BF000480A494800F0B4FE20780121401C2070AA
:102C000088F80010FF214C4802E198F800000128E4
:102C100085D188F800900220DDE10AE015E02EE081
:102C200096E0BDE0D5E0DBE00CE127E152E157E1C1
:102C300063E145490878012892D181F80090334931
:102C400081F800909FED3F0A54E19AF800000128B6
:102C500086D12C4938488AF8009081F8009090F984
:102C60000000401C06D00420FFF7C6FB01213748B6
:102C70000170B0E60120FFF7BFFBFF21F7E7324804
:102C8000017801299DD180F8009020481A4F4E46C6
:102C900080F8009097ED000A1E4800F061FE97ED65
:102CA000000A1D4800F05CFE01218BF80010FFF7C0
:102CB000BBF9134908602E708DE6000096010020D4
:102CC0000000000000607840950100207C01002099
:102CD0000000A042A20100207E01002000000000B0
:102CE000A4010020A3010020780100206001002041
:102CF0000010024000000C4300000020A50100204D
:102D0000580100207D010020A80100207F01002043
:102D10000008024004000020240000205C8FC2F55F
:102D200028B46A40000000000000D03F000000000E
:102D300000006940000048C2A601002000003443A2
:102D4000940100200000484380010020A7010020DA
:102D50002878012896D1FFF767F9EE490968401AEB
:102D600001F010FE1FED131B53EC112B01F05EFE62
:102D70001FED141B53EC112B01F058FE53EC192BD3
:102D800001F0A8FC9FEDE41B53EC112B01F04CFF6C
:102D90003FD285F800908BF800909FEDE10AA9E002
:102DA0009AF800000128D5D1DE498AF8009081F810
:102DB0000090B0EE480ADC4800F0D2FDB0EE480AC0
:102DC000DA4800F0CDFDDA490422DA48FFF70AF9C3
:102DD00001E698F800100129BCD188F8009031E78D
:102DE0009AF800000128B5D1CE49D3488AF800905E
:102DF00081F8009090F90000411C0BD0012815D0FB
:102E00000520FFF7F9FAC8202070CC480178494224
:102E100001707AE10120FFF7EFFAC84890F900004D
:102E2000401C01D04821BEE54521BCE50420FFF748
:102E3000E3FAC24890F90000401C01D04621B2E5F7
:102E40004721B0E5BE4908780128E2D181F8009019
:102E5000BC49BD4EB44881F8009096ED000A00F0E0
:102E60007FFD96ED000AB14800F07AFD01218BF854
:102E70000010FFF7D9F8A7490860ACE528780128C9
:102E8000C7D1FFF7D1F8A3490968401A01F07AFDCC
:102E90001FED5E1B53EC112B01F0C8FD1FED5F1BF6
:102EA00053EC112B01F0C2FD53EC192B01F012FC75
:102EB0009FEDA61B53EC112B01F0B6FE09D285F84D
:102EC00000908BF80090BBEE0E0AFDF75BFB08202C
:102ED00020701AE19A49087801283FF46BAD14E19B
:102EE0009C48017801290DD180F800908BF8009062
:102EF000B0EE680AFDF746FB6DE59AF8001001296F
:102F00003FF46CAD01E1944E307810B101287DD0D2
:102F1000FBE0207870B101282BD0022841D0032893
:102F200043D004285AD005283BD006286FD0072864
:102F30006ED0EAE008218948FDF7A6FC012833D1CC
:102F4000002202218648FDF7A4FC0520FFF754FA71
:102F50002078401C207083480078432806D04428FD
:102F600004D0452820D304227F49B2E004227F49BF
:102F7000AFE073480178012916D180F800907148BC
:102F800080F80090704E684896ED000A00F0E8FC6A
:102F900096ED000A654800F0E3FC01218BF8001073
:102FA00019E52878012847D0AFE09AF800000128F9
:102FB00074D15C496B488AF8009081F800900078E1
:102FC000412805D0432803D0452801D0482801D105
:102FD000042000E00120FFF70FFAFCE458480178D4
:102FE00001295BD180F8009056484F4680F8009048
:102FF000554890ED000A4C4800F0B2FC524890ED64
:10300000000A4A4800F0ACFC012102E047E018E069
:1030100027E054488BF800100278A2F14100032801
:10302000BED83178491C31702770432A01D0442A18
:103030006BD104224E494CE085F800908BF800904B
:103040004CE59AF8001001295FD136488AF80090C3
:1030500080F80090434800784528B9D04728B9D176
:10306000B6E73748017801294FD180F800903548FC
:103070004F4680F80090344890ED000A2A4800F04E
:103080006FFC314890ED000A284800F069FC0121EE
:103090008BF800103078401C3070277035E02078B5
:1030A00010B1012819D030E02A48017801292CD12B
:1030B00080F800908BF80090B0EE680AFDF762FA95
:1030C0002078401C20702748007845281DD32949C6
:1030D00004222948FEF786FF17E09AF8001001291C
:1030E00013D110488AF80090012280F80090202126
:1030F0001A48FDF7CEFBB0EE480A0B4800F030FC52
:10310000B0EE480A094800F02BFC012000F0B8FBA3
:10311000FFF7F0BB580100200000000000C06C4029
:1031200000000CC27D0100200400002024000020CB
:103130006401002044050020A6010020A701002012
:10314000800100207F01002000000020000000001E
:1031500000C0924094010020A30100200010024012
:1031600000080240A8010020700100206C0100202E
:10317000680100207401002088050020524FDFF80C
:103180004C81DFF84C91DFF84CA1534C534D4FF07C
:10319000814B00263868401C386002287ED1504898
:1031A0003E60007801281FD14E48B0F9000000EEC3
:1031B000100A4D48B8EEC00A00F0B1FB4B4880ED54
:1031C000000A4B48D0ED000A4A4830EE800A00F071
:1031D000C7FB4748D0ED000A444890ED000A464836
:1031E00030EEC00A00F0BCFB44480078012837D11B
:1031F00000F0ECF988ED000A00F0E0FD89ED000A2E
:1032000098ED000A3B4800F0ABFB99ED000A3A4804
:1032100000F0A6FB2078062802D3297806291AD2C6
:103220009AED030AB0EEC00A10EE102A5A4501DAF0
:10323000401C00E040082070314890ED030AB0EED9
:10324000C00A10EE100A5845287801DA401C00E048
:103250004008287004E02B490120087026702E7069
:1032600029480078012828D100F0B0F988ED000A3B
:1032700000F0A4FD89ED000A98ED000A1D4800F059
:103280006FFB98ED000A1C4800F06AFB20780628C6
:103290000ED29AED030AB0EEC00A00E00DE010EE87
:1032A000101A594501DA401C00E04008207004E083
:1032B00016490120087026702E7000F0EFFD0A20DC
:1032C00000F0DEFA66E70000AC0000209801002064
:1032D0009C01002064000020A0010020A10100202A
:1032E0007C010020A800002044000020A400002051
:1032F0000000002004000020240000207F010020A6
:1033000084000020800100207D0100207E0100203B
:103310000148FEF7BBBA00000005002010B5806B25
:103320000021C185C184FEF7AFFA10BD01680C31E0
:1033300051E8002F22F4907241E80023002BF5D1D0
:103340000168143151E8002F22F0010241E8002306
:10335000002BF5D1016B012909D101680C3151E82D
:10336000002F22F0100241E80023002BF5D120218C
:1033700080F83E1000210163704708B590F83E10B8
:10338000222901D0022008BD82684FF480539A425E
:1033900001D1016921B1816A9A421BD04AB10AE088
:1033A0000268816A5268C2F308020A80816A891C35
:1033B00008E0026972B10268526802F07F020A7086
:1033C000816A491C8162C18D491E0904090CC185AD
:1033D00003D019E002685268F1E70168CA6822F078
:1033E0002002CA600168CA6822F48072CA6001685B
:1033F0004A6922F001024A61202180F83E10016BE7
:10340000012903D0FEF778FC002008BD00210163EC
:1034100001680C3151E8002F22F0100241E800232E
:10342000002BF5D101680A68D20602D50A684968FE
:103430000091818DFEF727FAE6E7000070B504469B
:1034400000680169E26821F440511143016121697A
:10345000A068E26908436169114308432168CA68AA
:1034600049F20C639A430243CA6020684169A26929
:1034700021F440711143416131492068884202D0F2
:103480003049884202D1FDF79DFB01E0FDF78AFB40
:10349000E2690023192164253226B2F5004F6268E3
:1034A00028D0A0FB0101930F9200FCF75DFF0146BD
:1034B000B0FBF5F06FF01802504301EB800006EB13
:1034C0000010B0FBF5F000F0F002B1FBF5F002EBFC
:1034D0000012B1FBF5F06FF01803584301EB8000C8
:1034E00006EB0010B0FBF5F000F00F00216810446F
:1034F000886070BDA0FB010192185B41FCF734FFAE
:103500000146B0FBF5F00201B1FBF5F06FF01803D6
:10351000584301EB800006EBC000B0FBF5F000F073
:10352000F80002EB4002B1FBF5F0584301EB8000DC
:1035300006EBC000B0FBF5F000F00700D6E7000096
:10354000001001400014014081628285C285002183
:103550000164222280F83E2080F83C10016921B1EC
:103560000168CA6842F48072CA6001684A6942F020
:1035700001024A610068C16841F02001C160002079
:10358000704700000148FEF781B9000044050020A3
:103590000148FEF77BB90000880500200148FEF7CE
:1035A00075B90000CC050020FEE70907090E0028C8
:1035B00004DB00F1E02080F80014704700F00F00F9
:1035C00000F1E02080F8141D7047000010B5FEF7F0
:1035D0002BFD25490968401A01F0D4F99FED231B02
:1035E00053EC112B01F022FA9FED221B53EC112B0F
:1035F00001F01CFA9FED211B53EC112B01F06AF82E
:1036000001F02AF800EE100A1E49F0EEC00A10EE92
:10361000900A884209DDB5EEC00AF1EE10FA02DD2B
:103620009FED190A01E09FED190A194800F077F99A
:1036300017481849C068884204DA1749884201D2FD
:103640009FED160A1649F0EEC00A10EE900A884265
:1036500006DDB5EEC00AF1EE10FA02DD9FED110AAB
:1036600010BD9FED110A10BD580100205C8FC2F5FE
:1036700028B46A40000000000000D03F00000000B5
:10368000006078400000AF430000AF430000AFC3CC
:1036900064000020CDCC4C3ECDCC4CBE00000000E0
:1036A0000000B4420000B4420000B4C22DED028B11
:1036B000FDF702F9FEF738FFFEF7ECFCFEF780FDA0
:1036C000FEF7E8FDFEF71AFEFEF734FEFEF74EFEAB
:1036D000FEF768FEFEF740FD00215948FEF740F86E
:1036E00004215748FEF73CF808215548FEF738F802
:1036F0000C215348FEF734F85149C8200A6850633A
:103700000968C8634F4C6FF00106206806613C21D0
:103710002046FDF757FE2068350945622068C168DC
:1037200041F00101C160484C206806613C212046FF
:10373000FDF748FE206845622068C16841F001013C
:10374000C160012241494248FEF7C0FA414800F0F9
:10375000CDF8B3EE091A9FED408AB0EE000A3D485D
:10376000F0EE480A00F0D8F8B1EE000A394800F04F
:10377000F7F83848203000F0B9F83648B7EE001AAC
:10378000F0EE480AB0EE080A203000F0C5F83148E3
:10379000403000F0ABF82F48B7EE001AF0EE480AC0
:1037A000B0EE080A403000F0B7F82A4C443C201D27
:1037B00084ED008A00F09AF8DFED288AB0EE481A0E
:1037C000B1EE000AF0EE680A201D00F0A5F894EDB5
:1037D000000A201D00F0C4F804F1240000F086F86F
:1037E000B0EE481AF0EE680AB1EE000A04F12400C7
:1037F00000F092F894ED000A04F1240000F0B0F813
:10380000042217491748FEF7EDFB01221649154817
:10381000FEF75CFA012220211448FDF73AF8144C17
:10382000012202212046FDF734F8012251032046EF
:10383000FDF72FF8FEF704FC00F029F8FEE7000082
:10384000480400200004002090040020C400002050
:10385000440500204400002000000000CDCCCC3DF9
:103860007001002000050020C70000200010024069
:103870000008024001460020842900D0C81C70477F
:1038800010B500B9012000F0BBFC002010BD10B540
:1038900000F0DCFC002010BD7FB50D4604464169F8
:1038A000B0F9080081B1A16971B1FFF7E3FFD4E974
:1038B00005128DE80700D4E900102B46226900F0BC
:1038C000D8FD039004B070BDFFF7D4FF03A9CDE984
:1038D0000001208A2B4682B2D4E9001000F09CFD42
:1038E000012801D00020EDE70398EBE79FED090ADE
:1038F00080ED000A80ED010A80ED020A80ED030AE6
:1039000080ED040A80ED050A80ED060A80ED070AC5
:10391000704700000000000080EC030A7047D0ED03
:10392000060A70EEC00AC0ED030A90ED050A30EEFB
:10393000201A80ED051A90ED000AD0ED011A20EE54
:10394000200A01EE810A90ED041AD0ED021A30EE41
:10395000C11A01EE810A80ED070AC0ED040A704722
:1039600080ED060A704700002DE9F041184C0F4623
:103970000546E6682068001D00F07AFB38B920682B
:1039800090F82C1001208840216981432161681C36
:1039900007D137B12168BDE8F0410E48091D00F09C
:1039A000ABBB20683544B5424560216805D2A06BA9
:1039B000BDE8F041091D00F087BB606B091D00F0F8
:1039C00083FBA06A854200D2A562BDE8F0810000B9
:1039D000D8000020340700202DE9F041054600F012
:1039E00097FB2E4CA068401CA06020682C4F10B1A3
:1039F000606940B32DE02560A068012829D1002628
:103A000006EB860007EB800000F050FB761C072ECB
:103A1000F6D323488C3000F049FB2148A03000F059
:103A200045FB1F48B43000F041FB1D48C83000F092
:103A30003DFB1B48DC3000F039FB19488C306063DB
:103A40001430A06305E02068E96AC06A884200D8A3
:103A50002560606A401C6062E96A01202269884032
:103A60001043206101EB810007EB8000291D00F06D
:103A700043FB00F06DFB606900280CD02068E96A08
:103A8000C06A884207D207494FF080500860BFF3F0
:103A90004F8FBFF36F8FBDE8F0810000D80000208A
:103AA0005806002004ED00E010B5044690F85100DF
:103AB00058B101280CD002280FD0502080F3118873
:103AC000BFF34F8FBFF36F8FFEE7206B00F054FB07
:103AD0002046BDE8104000F04FBB10BD10484FF429
:103AE0007051420706D0C01D0D4920F00700411A51
:103AF000C1F570510B4A00230144C2E900030839A3
:103B0000183A21F0070111604B600B600B1AC0E9F5
:103B1000001393604FF00040536050617047000005
:103B2000480700202C010020144E154CA6F1C807B0
:103B30004FF08058DFF84C9012E000BF00F0E8FA38
:103B4000F068C568281D00F093FAA068401EA060C8
:103B50006068401E606000F0FBFA2846FFF7A4FF93
:103B600060680028EAD138680128F9D9C9F80080CE
:103B7000BFF34F8FBFF36F8FF2E7000020070020E5
:103B8000D800002004ED00E02DE9F0479A46DDE979
:103B9000098481466FF00303206B03EB820210441B
:103BA000089E20F00707780707D0502080F311887F
:103BB000BFF34F8FBFF36F8FFEE7002561B1002089
:103BC00023180A5C83F834200A5C12B1401C1028C8
:103BD000F6D384F8435001E084F83450072E00D324
:103BE0000626E662C4E91165201D00F06AFA04F1B8
:103BF000180000F066FA2461C6F107006462A06153
:103C0000E56484F8505052464946384600F0C0F802
:103C10002060B8F1000F01D0C8F80040BDE8F0877F
:103C200030B5114900E011460A688242FBD34B6867
:103C30005C18844203D140681844486008464368D1
:103C40001C18944209D1084C183C2468A24209D09F
:103C500052681A4442600A6812680260814200D0C9
:103C6000086030BD0460F9E72C0100200648416B74
:103C7000096829B1416BC968C968496881627047A0
:103C80004FF0FF31FAE70000D800002008484068F4
:103C9000401C4FF0500080F3118804D0BFF34F8FC9
:103CA000BFF36F8FFEE7BFF34F8FBFF36F8FFEE75A
:103CB000340100202DE9F0410546002700F0FCFA10
:103CC000324E306808B9FFF709FF706905424ED1DE
:103CD000C5B3083568070ED005F00700C0F108002D
:103CE0000544680707D0502080F31188BFF34F8F39
:103CF000BFF36F8FFEE72DB37068854237D8234836
:103D0000183001460C6801E020460C466168A94263
:103D100002D221680029F7D131688C4227D0076888
:103D20002168016060680837411B10290FD96019AC
:103D3000420708D0502080F31188BFF34F8FBFF3A4
:103D40006F8FFEE713E041606560FFF769FF616810
:103D50007068401A7060B268904200D2B0607069BA
:103D600001430020C4E90001F068401CF06000F04D
:103D700011FC780707D0502080F31188BFF34F8FD4
:103D8000BFF36F8FFEE73846BDE8F08114010020D5
:103D900010B5031F4FF080741C601B1F21F0010140
:103DA0001960191F044B0B6014390A60091F6FF06A
:103DB000020244380A6010BD8D3C000810B5FEF7C1
:103DC0000FFB25490968401A00F0DCFD9FED231B1D
:103DD00053EC112B00F02AFE9FED221B53EC112B0C
:103DE00000F024FE9FED211B53EC112B00F072FC20
:103DF00000F032FC00EE100A1E49F0EEC00A10EE90
:103E0000900A884209DDB5EEC00AF1EE10FA02DD33
:103E10009FED190A01E09FED190A1948FFF77FFD90
:103E200017481849C068884204DA1749884201D205
:103E30009FED160A1649F0EEC00A10EE900A88426D
:103E400006DDB5EEC00AF1EE10FA02DD9FED110AB3
:103E500010BD9FED110A10BD5C0100205C8FC2F502
:103E600028B46A40000000000000D03F00000000BD
:103E7000006078400000AF430000AF430000AFC3D4
:103E800084000020CDCC4C3ECDCC4CBE00000000C8
:103E90000000B4420000B4420000B4C22DE9F05F5B
:103EA0002DED068BFEF7C0F8634D2968401A00F02F
:103EB00069FD9FED628B53EC182B00F0B7FD9FED71
:103EC000619B53EC192B00F0B1FD9FED60AB53ECFF
:103ED0001A2B00F0FFFB00F0BFFBDFF878A154467F
:103EE000CAF81000FEF7A0F8286094ED040A5A48BA
:103EF000FFF715FDB5EEC00A002584ED020AF1EECC
:103F000010FA564EDFF85881564C4FF461774FF057
:103F1000960915DB2068856310EE100AB04202DDB9
:103F20002068476328E010EE100A404501DA484651
:103F300003E0BDEEC00A10EE100A216848631BE0E2
:103F4000B5EEC00AF1EE10FA16D220684563B0EE65
:103F5000C00A10EE100AB04202DD206887630BE051
:103F600010EE100A404501DA484603E0BDEEC00AF3
:103F700010EE100A21688863FEF732FADFF8E8B025
:103F8000DBF80010401A00F0FDFC53EC182B00F099
:103F90004DFD53EC192B00F049FD53EC1A2B00F0AA
:103FA00099FB00F059FBCAF81400FEF719FACBF898
:103FB00000009AED050A2D48FFF7B1FCB5EEC00AE6
:103FC0008AED030AF1EE10FA18DB2068056410EEA2
:103FD000100AB04205DD2068C763BDEC068BBDE862
:103FE000F09F10EE100A404501DA484603E0BDEEAE
:103FF000C00A10EE100A2168C863EEE7B5EEC00AE9
:10400000F1EE10FAE9D22068C563B0EEC00A10EEF6
:10401000100AB04202DD20680764DEE710EE100AE5
:10402000404501DA484603E0BDEEC00A10EE100A32
:1040300021680864D1E7000048010020000000006A
:104040000070B740000000000000D03F00000000FA
:10405000006078407C0100200400002000006144E2
:1040600000001643480400205001002024000020D6
:10407000D0E9013201699A60D0E901235A604A68A7
:10408000824201D182684A60002202610868401EB3
:104090000860086870470000034B036003F1540098
:1040A0000860802010607047AC01002000F108011A
:1040B0004FF0FF32C0E90112C160016100210160CF
:1040C000704700210161704730B50B685A1C02D05F
:1040D00000F1080202E0026904E022465468256803
:1040E0009D42FAD953684B6099608A6051600861BB
:1040F0000168491C016030BD42684A6093688B606A
:1041000093685960916008610168491C01607047BB
:10411000502080F31188BFF34F8FBFF36F8F0A4990
:104120004868401C486001280CD10848006810F01D
:10413000FF0F07D0502080F31188BFF34F8FBFF3DC
:104140006F8FFEE7704700003401002004ED00E0AF
:104150000849486828B1401E486001D180F31188A1
:104160007047502080F31188BFF34F8FBFF36F8FDC
:10417000FEE700003401002070B500282AD0164D5B
:10418000A0F1080460686969084207D1502080F3F3
:104190001188BFF34F8FBFF36F8FFEE722683AB1EC
:1041A000502080F31188BFF34F8FBFF36F8FFEE76E
:1041B0008843606000F080F860686968084468605F
:1041C0002046FFF72DFD2869401C2861BDE870409E
:1041D00000F0E0B970BD0000140100204FF0E020B5
:1041E00000210161816105494FF47A720968B1FBD0
:1041F000F2F1491E4161072101617047D40000209E
:1042000010B5020014D00F48006B38B1502080F375
:104210001188BFF34F8FBFF36F8FFEE700F04CF8AC
:1042200000211046FFF7A0FB00F0B4F9002807D1E9
:1042300005494FF080500860BFF34F8FBFF36F8F79
:1042400010BD0000D800002004ED00E010B586B0DD
:104250000024039405AA04A903A80494FFF71CFFF3
:10426000DDE903010094CDE9011000230EA11048FF
:10427000059A00F0FEF80F490028C86211D05020BE
:1042800080F31188BFF34F8FBFF36F8F4FF0FF3074
:10429000886201204861CC6006B0BDE8104000F0A3
:1042A00041B806B010BD000049444C450000000074
:1042B000293B0008D80000200248016B491C01631B
:1042C00070470000D80000201448016B11B1012193
:1042D000C16170470021C1610169B1FA81F1C1F189
:1042E0001F0101EB81020E4951F822306BB101EB45
:1042F000820101F108034A6852684A609A4201D17A
:1043000052684A60D16801607047502080F311887C
:10431000BFF34F8FBFF36F8FFEE70000D800002080
:10432000580600201CB537480168374A914207D12A
:10433000502080F31188BFF34F8FBFF36F8FFEE7DC
:1043400000683149491E884207D1502080F3118806
:10435000BFF34F8FBFF36F8FFEE72C4908780190B2
:10436000FF20087008788DF800009DF800009DF887
:10437000002000F0F000904207D0502080F3118818
:10438000BFF34F8FBFF36F8FFEE79DF80000204C07
:1043900000F0500020700720A06005E09DF800208C
:1043A00052008DF80020401E9DF800201206F5D422
:1043B000A060032807D0502080F31188BFF34F8FEF
:1043C000BFF36F8FFEE74FF44070A0600198087054
:1043D0000C482030016841F470010160016841F02F
:1043E00070410160FFF7FAFE00206060FBF760FF9C
:1043F0000848016841F040410160FBF745FF00209B
:104400001CBD000000ED00E071C20F4100E400E0BF
:104410003401002034EF00E02DE9FF5F8346DDE941
:104420000E87994616468A469000FFF743FC050022
:104430001CD05420FFF73EFC040014D0002025635C
:1044400084F85100CDE90240CDE900874B46324661
:1044500051465846FFF798FB2046FFF7BDFA01206A
:1044600004B0BDE8F09F2846FFF786FE4FF0FF300E
:10447000F6E7F0B585B0DDE90B640A9DA6B1DCB1C5
:10448000542700972663022684F85160002604AF63
:10449000CDE90246CDE90057FFF776FB2046FFF74E
:1044A0009BFA049805B0F0BD502080F31188BFF34B
:1044B0004F8FBFF36F8FFEE7502080F31188BFF35B
:1044C0004F8FBFF36F8FFEE72DE9F0412F4C002691
:1044D000206B28B1A069401CA0613046BDE8F08186
:1044E000E5686D1CE56013D1606B006838B1502041
:1044F00080F31188BFF34F8FBFF36F8FFEE7606BC0
:10450000A16B6163A063206A401C2062FFF7AEFBD1
:10451000A06ADFF87C80854209D3606B0068A0B197
:10452000606BC068C7687868854211D2A062206855
:10453000C06A00EB800158F82100012800D901264B
:10454000E0690028C9D00126C7E74FF0FF30EDE74A
:10455000381DFFF78DFDB86A18B107F11800FFF795
:1045600087FDF96A0120226988401043206101EB30
:10457000810108EB8100391DFFF7BEFDF86A216853
:10458000C96A8842C9D30126C7E70000D8000020C5
:10459000580600202DE9F0472C4D00242746286BB3
:1045A00038B1FFF7B5FD286B401E2863286B40B17A
:1045B00046E0502080F31188BFF34F8FBFF36F8F19
:1045C000FEE7A968224E0120D1B3A6F1B4098046C6
:1045D0003068E8B1F068C46804F11800FFF748FDDE
:1045E000201DFFF745FDE06A2A6908FA00F1114332
:1045F000296100EB800109EB8100211DFFF77CFDA3
:10460000E06A2968C96A8842E2D3C5F81C80DFE7FE
:104610000CB1FFF72BFBAC6944B14646FFF754FFE2
:1046200000B1EE61641EF9D10020A861E86938B1DB
:104630000849012738070860BFF34F8FBFF36F8F1A
:10464000FFF786FD3846BDE8F0870000D80000205F
:104650000C07002004ED00E021F00042A2F16052BE
:10466000B2F5801F01F0004328BFD2F17F6C0BD957
:104670005FEA001C43EAC20242EB507018BF704769
:1046800028BF20F001007047B2F5801FBCBF18465C
:1046900070474FEA410C1CF5001F02D2084600F09B
:1046A000FEBA70B500F06CFA00000089FFF7F6BFA3
:1046B0004FF00040A0F580007047491058BFC1F18D
:1046C00040415B1058BFC3F140438B42EFF3008081
:1046D000704700002DE9C04130B4DFF8A0C23CEAC9
:1046E000111418BF3CEA131400F0EC8081EA0305B2
:1046F0001CEA111444EAD57418BF1CEA131500F023
:10470000C780A4EB05044FF0004545EAC12145EA06
:10471000C32341EA505143EA525304F17F74994252
:1047200004F500344FEAC0204FEAC22208BF90428D
:1047300000F09C804FEA13650FF24016765D4FEA59
:10474000134506FB05F7C7F1807706FB07F74FEA2D
:10475000D737A7FB03687642C8F58038A7FB06CE9B
:1047600038BFA8F1010807FB08E64FF0000EA6FBD2
:10477000028CE6FB03CEDCF1000CCEF1004E38BF1C
:10478000AEF1010EA6FB0C584FF000074FF00005EC
:10479000E6FB0E87A1FB08C6A0FB07CE16EB0E06B4
:1047A00045F10005E1FB076515F1E04E7EBFA4F57C
:1047B00080345FEA46066D4116F1800745F1000539
:1047C0004FEA17274FEA066647EA0567A6F1DE4675
:1047D000B6F1805F4FEA15251FD9384624F0010C49
:1047E00005EBC471BCF1FE6F01EB0C1102D8F0BCFB
:1047F000BDE8008124425CBF01F5801E9EEAC47FB3
:1048000002D4F0BCBDE80081244238D4F0BCA1F150
:10481000C041BDE8004100F001BA4FEAD22242EAAD
:1048200043524FEAD323A7FB02864FEAD02040EA47
:10483000415007FB03661EEA0E0F4FEAD12105FB2C
:10484000026658BFA6EB0056B6EB00564FEA520E72
:104850004EEAC37E18EB0E0E56EB530EBDD518EB89
:1048600002085E417F1C55F10005B6E74FF4801544
:104870004FF000074FF000064FF00008ADE7F0BC26
:104880004FF0000001F1C04101F00041BDE800819E
:1048900011EA0C1F0CEA131500D00CE013EA0C1FF0
:1048A00000F025804FF00000F0BC81EA030101F028
:1048B0000041BDE80081F0BCBDE8004181EA030190
:1048C00000F0ACB9F0BCBDE8004170B500F058F99B
:1048D000097EFC3E00F007B881EA03014FF00000BA
:1048E00001F00041704781EA030100F097B9F0BC84
:1048F000BDE800414FF0000021497047FFFDFBF982
:10490000F7F5F4F2F0EEEDEBE9E8E6E4E3E1E0DE02
:10491000DDDBDAD8D7D5D4D3D1D0CFCDCCCBCAC874
:10492000C7C6C5C4C2C1C0BFBEBDBCBBBAB9B8B79B
:10493000B6B5B4B3B2B1B0AFAEADACABAAA9A8A88E
:10494000A7A6A5A4A3A3A2A1A09F9F9E9D9C9C9B5C
:104950009A99999897979695959493939291919007
:104960008F8F8E8E8D8C8C8B8B8A89898888878798
:104970008685858484838382828181800000FF070D
:104980000000F87F10F0004248BF4042B0FA80F3C8
:1049900010FA03F10AD0C3F11D0303F580634FEA57
:1049A000415002EB035202EBD12170474FF000005F
:1049B0007047000051EA030C17D41CF5801F58BF44
:1049C000BCF5801F00F10680994218BF704708BFF0
:1049D0009042704707D711F5801F58BF13F5801F0D
:1049E00019D499427047894270471CF5801F08D539
:1049F000BCF5801FF7D58B4218BF704708BF8242B5
:104A000070474FF4001C1CEB410F38BF1CEB430FE9
:104A100001D28B42704770B500F0B2F89224490081
:104A20004FF000514FF08053FFF747BEDFF848C109
:104A300070B51CEA111E1EBF1CEA13159EEA0C0F6E
:104A400095EA0C0F00F06F8081EA030423EA4C130F
:104A50004EEAD47E21EA4C1141F4801143F48013D4
:104A6000AE44A1FB024CA0FB0365AEF17F7E36197C
:104A700055EB0C05A1FB034C4CF10003A0FB021C01
:104A800016EB0C06654153F10003094218BF46F0CE
:104A9000010613F4007F0BD14FEA03314FEA0530D2
:104AA000340341EA155140EA16506FF003020AE060
:104AB0004FEAC3214FEAC520F40241EA555140EACA
:104AC00056506FF0020202EB2E4201EB025585EACE
:104AD000CE710AD05FEA440C18BF24F0004450F1B4
:104AE000000041F1000120EAD47040F2FE7C6245F2
:104AF00000D270BDA84214BF4FF080444FF0404434
:104B0000002E08BF0024BEF1806FA8BFA1F1C041F4
:104B1000BDE8704080F282804FF0000001F1C0419A
:104B200001F0004170479EEA0C0F0CEA131518BF04
:104B300095EA0C0F06D04FF0000081EA030E0EF04C
:104B4000004170BD00F01CF88900013E00F007B87C
:104B500000F009B84FEA430C5FEA5C5C08D081EAD8
:104B6000030100F05BB84FEA410C5FEA5C5CF6D1F0
:104B70004FF00000014970470000FF070000F87F78
:104B80000EF1020E2EF0030E5EF8046B364205D4D1
:104B9000012A43EB030515F5001F12D8012841EB4C
:104BA000010C1CF5001F0CD80ED14FEAD17C15F575
:104BB000001F0CEB4C0C0CF1020C08BF4CEBD37C2F
:104BC00004E04FF0080C01E04FEAD37C0CEB4C05FD
:104BD00026FA05F606F00706B6F1040C06D20EEB2F
:104BE000860CBDE870404CF0010C6047DFE80CF02B
:104BF000090B02024FF000414FF00000A1F5002127
:104C000070BD19461046012851EB010418BFD4F5B8
:104C1000001484BF002001F0004170BD0808A0F519
:104C200000114FEA3101704753EA010C17D41CF50B
:104C3000801F58BFBCF5801F00F106808B4218BF53
:104C4000704708BF8242704707D713F5801F58BFCF
:104C500011F5801F19D48B4270479B4270471CF599
:104C6000801F08D5BCF5801FF7D5994218BF704743
:104C700008BF904270474FF4001C1CEB430F38BF35
:104C80001CEB410F01D2994270470FB40CBC03BC1E
:104C9000FFF7C1BE4FF04070E1EE100A7047FF21F0
:104CA00041EAD050C0057047344D0008F524000893
:104CB0000000000000000000800000000000000074
:104CC00000000000144D00087D31000800000000C5
:104CD0000000000080000000000000000000000054
:104CE000244D0008D1280008FFFF0000000000004C
:104CF00000020000000000000000000000000000B2
:104D0000000000000102030406070809000000007B
:104D10000102030453706565644374726C546173DB
:104D20006B000000436172476F616C4374726C5496
:104D300061736B0064656661756C745461736B00BC
:104D4000604D000800000020AC010000C401000814
:104D5000A04D0008AC010020FC4700002002000824
:104D6000610712803FCDCCCC3D0B847042200122E4
:104D700032018210036124F41AAA01C1EDFFFFFF82
:104D80000F08290413A10113A2A11401A2D1140137
:104D9000D2D11A02041A0304033004D232410000B3
:040000050800018965
:00000001FF
